:0E0000000C9446000C9400000C9400000C942C
:10000E0000000C9400000C9400000C9400000C9462
:10001E0000000C9400000C9473000C9400000C94DF
:10002E0000000C9400000C9400000C9400000C9442
:10003E0000000C9400000C9400000C9400000C9432
:10004E0000000C94000000000000000000003A00C8
:10005E0080C001002D4E414E00494E460000080062
:10006E0004005400020060015C00020062015C00AA
:10007E0002007E015E000100830160000000F89422
:10008E00EE27ECBBF1E0FBBFEBBFE5BF8DE0A2E0DE
:10009E00BB27ED938A95E9F780E094E0A0E6ED9317
:1000AE000197E9F7ECE6F0E085919591009761F004
:1000BE00A591B59105901590BF01F00105900D9297
:1000CE000197E1F7FB01F0CFEFE5EDBFE4E0EEBF06
:1000DE00C0E6D1E00C94DE000A921A92FA926A936C
:1000EE007A938A939A93AA93BA93EA93FA93EFB771
:1000FE00EA93E3E8E2BFC8994CC0F20131962F01B2
:10010E00E8EEF3E0E415F50509F043C04424552468
:10011E00F30131963F01ECE3F0E0E615F70579F4D3
:10012E0066247724F40131964F01ECE3F0E0E815F4
:10013E00F90529F488249924F50131965F01BA92C4
:10014E00AA92A4E6B1E00E94E801A0E6B1E00E9406
:10015E00D7019A928A92A4E7B1E00E94E801A4E73F
:10016E00B1E00E94D701E4E6F1E0FA93EA93A2E649
:10017E00B1E00E94D7017A926A92A4E7B1E00E94A0
:10018E00E801A4E7B1E00E94D70179D0A4E6B1E07E
:10019E0099D0E991EFBFF991E991B991A99199910E
:1001AE00899179916991F990199009901895E0E0EB
:1001BE00EABBE1E0EBBBE0E0E7BBE8BBE4BBE5BBE1
:1001CE00E1BBE2BBE3E0E3BFE3E8E2BFE0E0ECBFAC
:1001DE00EFBDEEBDEDBDECBDE7BDE6BDEBBDEABDD1
:1001EE00E9BDE8BDE2BDE5BDE4BDE3BDE1E0E9BFCB
:1001FE00E0E0E5BFE4BFEAB9E0E8E8B9E0E0E0BF7F
:10020E00E6B9EDB9E6BFA0E16ED07894C89B08C000
:10021E00442455246624772488249924AA24BB24B4
:10022E00F5CFFFCFAA93E2B3EF70AE2FE881E07F58
:10023E00EA2BE2BB8DE08A95F1F7929A8DE08A95D2
:10024E00F1F792988DE08A95F1F77AC0AA93A8817A
:10025E00E9DFE881E295E883A881E4DF85E88A9505
:10026E00F1F76EC0AA93E881F0E0E258FE4FE0810C
:10027E00A981AE0FEBDFD980C88022960895A2E047
:10028E000E94EF01ACE0E2DFA1E00E94EF01E0E0AE
:10029E00CE2EDE2E0895AA93A881AA3021F0E091E9
:1002AE008201DE1648F0E0E0EA93C394AC2DDADF6B
:1002BE00A881AA3009F444C0D394909AA881C6DFCD
:1002CE0090983EC0BA93AA931A93A981BA81ED91E0
:1002DE00A983BA831E2FE03019F0A12FDCDFF5CFF2
:1002EE00188123960895AA93E1B3E06FE1BB8A9A31
:1002FE00889A899A929890989198E881E0938201D1
:10030E00E058E0938001E881E054E0938101A4E19C
:10031E00B0E00E94FD010E94F5010E94F5010E94CD
:10032E00F501A0E27FDF88EC90E00197F1F7A8E2FB
:10033E008DDFA4E08BDFA5E889DFA6E087DF9FDFF6
:10034E0021960895BA93AA93A991B991E991F99139
:10035E0030962AF4E095F09531966DE26D93E8941F
:10036E0080E197E20DD088EE93E00AD084E69927DB
:10037E0007D08AE005D06E2F10D066276C930895B3
:10038E006627E817F90720F06395E81BF90BC9F704
:10039E00662311F416F008956894605D6D930895C8
:1003AE00BA93AA93E991F991A991B991CD016D9161
:1003BE006623E9F7119761916D936623E1F7FC01CE
:1003CE0008950E94A901E4E6F1E0FA93EA930895F4
:1003DE000E942D01A3E0B0E00C94FD01A0E30E9469
:1003EE00190188EC90E00197F1F70895109639F015
:1003FE0080ED97E00197F1F7A8951197C9F7089549
:00000001FF
